{
  "_format": "hh-sol-artifact-1",
  "contractName": "Warranty",
  "sourceName": "contracts/Warranty.sol",
  "abi": [
    {
      "inputs": [
        {
          "internalType": "uint256",
          "name": "_pointsThreshold",
          "type": "uint256"
        },
        {
          "internalType": "uint256",
          "name": "_purchasePoints",
          "type": "uint256"
        },
        {
          "internalType": "uint256",
          "name": "_redeemPoints",
          "type": "uint256"
        },
        {
          "internalType": "uint256",
          "name": "_bonusWarrantyDays",
          "type": "uint256"
        }
      ],
      "stateMutability": "nonpayable",
      "type": "constructor"
    },
    {
      "anonymous": false,
      "inputs": [
        {
          "indexed": true,
          "internalType": "address",
          "name": "owner",
          "type": "address"
        },
        {
          "indexed": true,
          "internalType": "address",
          "name": "approved",
          "type": "address"
        },
        {
          "indexed": true,
          "internalType": "uint256",
          "name": "tokenId",
          "type": "uint256"
        }
      ],
      "name": "Approval",
      "type": "event"
    },
    {
      "anonymous": false,
      "inputs": [
        {
          "indexed": true,
          "internalType": "address",
          "name": "owner",
          "type": "address"
        },
        {
          "indexed": true,
          "internalType": "address",
          "name": "operator",
          "type": "address"
        },
        {
          "indexed": false,
          "internalType": "bool",
          "name": "approved",
          "type": "bool"
        }
      ],
      "name": "ApprovalForAll",
      "type": "event"
    },
    {
      "anonymous": false,
      "inputs": [
        {
          "indexed": true,
          "internalType": "address",
          "name": "from",
          "type": "address"
        },
        {
          "indexed": true,
          "internalType": "address",
          "name": "to",
          "type": "address"
        },
        {
          "indexed": true,
          "internalType": "uint256",
          "name": "tokenId",
          "type": "uint256"
        }
      ],
      "name": "Transfer",
      "type": "event"
    },
    {
      "inputs": [],
      "name": "admin",
      "outputs": [
        {
          "internalType": "address",
          "name": "",
          "type": "address"
        }
      ],
      "stateMutability": "view",
      "type": "function"
    },
    {
      "inputs": [
        {
          "internalType": "address",
          "name": "to",
          "type": "address"
        },
        {
          "internalType": "uint256",
          "name": "tokenId",
          "type": "uint256"
        }
      ],
      "name": "approve",
      "outputs": [],
      "stateMutability": "nonpayable",
      "type": "function"
    },
    {
      "inputs": [
        {
          "internalType": "address",
          "name": "owner",
          "type": "address"
        }
      ],
      "name": "balanceOf",
      "outputs": [
        {
          "internalType": "uint256",
          "name": "",
          "type": "uint256"
        }
      ],
      "stateMutability": "view",
      "type": "function"
    },
    {
      "inputs": [],
      "name": "bonusWarrantyDays",
      "outputs": [
        {
          "internalType": "uint256",
          "name": "",
          "type": "uint256"
        }
      ],
      "stateMutability": "view",
      "type": "function"
    },
    {
      "inputs": [
        {
          "internalType": "string",
          "name": "claimReason",
          "type": "string"
        },
        {
          "internalType": "uint256",
          "name": "itemId",
          "type": "uint256"
        }
      ],
      "name": "claimItem",
      "outputs": [],
      "stateMutability": "nonpayable",
      "type": "function"
    },
    {
      "inputs": [
        {
          "internalType": "uint256",
          "name": "",
          "type": "uint256"
        },
        {
          "internalType": "uint256",
          "name": "",
          "type": "uint256"
        }
      ],
      "name": "claims",
      "outputs": [
        {
          "internalType": "address",
          "name": "ownerAddress",
          "type": "address"
        },
        {
          "internalType": "uint256",
          "name": "claimTime",
          "type": "uint256"
        },
        {
          "internalType": "string",
          "name": "claimReason",
          "type": "string"
        }
      ],
      "stateMutability": "view",
      "type": "function"
    },
    {
      "inputs": [
        {
          "internalType": "uint256",
          "name": "tokenId",
          "type": "uint256"
        }
      ],
      "name": "getApproved",
      "outputs": [
        {
          "internalType": "address",
          "name": "",
          "type": "address"
        }
      ],
      "stateMutability": "view",
      "type": "function"
    },
    {
      "inputs": [
        {
          "internalType": "uint256",
          "name": "itemId",
          "type": "uint256"
        }
      ],
      "name": "getClaims",
      "outputs": [
        {
          "components": [
            {
              "internalType": "address",
              "name": "ownerAddress",
              "type": "address"
            },
            {
              "internalType": "uint256",
              "name": "claimTime",
              "type": "uint256"
            },
            {
              "internalType": "string",
              "name": "claimReason",
              "type": "string"
            }
          ],
          "internalType": "struct Warranty.Claim[]",
          "name": "",
          "type": "tuple[]"
        }
      ],
      "stateMutability": "view",
      "type": "function"
    },
    {
      "inputs": [
        {
          "internalType": "address",
          "name": "user",
          "type": "address"
        }
      ],
      "name": "getItemsOfUser",
      "outputs": [
        {
          "components": [
            {
              "internalType": "uint256",
              "name": "itemId",
              "type": "uint256"
            },
            {
              "internalType": "uint256",
              "name": "tokenId",
              "type": "uint256"
            },
            {
              "internalType": "uint256",
              "name": "serialId",
              "type": "uint256"
            },
            {
              "internalType": "address",
              "name": "currentOwner",
              "type": "address"
            },
            {
              "internalType": "uint256",
              "name": "issueTime",
              "type": "uint256"
            },
            {
              "internalType": "uint256",
              "name": "warrantyDays",
              "type": "uint256"
            },
            {
              "internalType": "string",
              "name": "warrantyConditionsURL",
              "type": "string"
            },
            {
              "internalType": "uint256",
              "name": "transfersRemaining",
              "type": "uint256"
            }
          ],
          "internalType": "struct Warranty.Item[]",
          "name": "",
          "type": "tuple[]"
        }
      ],
      "stateMutability": "view",
      "type": "function"
    },
    {
      "inputs": [
        {
          "internalType": "uint256",
          "name": "itemId",
          "type": "uint256"
        }
      ],
      "name": "getLatestIssueTime",
      "outputs": [
        {
          "internalType": "uint256",
          "name": "",
          "type": "uint256"
        }
      ],
      "stateMutability": "view",
      "type": "function"
    },
    {
      "inputs": [
        {
          "internalType": "uint256",
          "name": "itemId",
          "type": "uint256"
        }
      ],
      "name": "getPreviousOwners",
      "outputs": [
        {
          "components": [
            {
              "internalType": "address",
              "name": "ownerAddress",
              "type": "address"
            },
            {
              "internalType": "uint256",
              "name": "puchaseTime",
              "type": "uint256"
            },
            {
              "internalType": "uint256",
              "name": "sellTime",
              "type": "uint256"
            }
          ],
          "internalType": "struct Warranty.Owner[]",
          "name": "",
          "type": "tuple[]"
        }
      ],
      "stateMutability": "view",
      "type": "function"
    },
    {
      "inputs": [
        {
          "internalType": "address",
          "name": "user",
          "type": "address"
        },
        {
          "internalType": "bool",
          "name": "usePoints",
          "type": "bool"
        }
      ],
      "name": "handlePoints",
      "outputs": [
        {
          "internalType": "bool",
          "name": "",
          "type": "bool"
        }
      ],
      "stateMutability": "nonpayable",
      "type": "function"
    },
    {
      "inputs": [
        {
          "internalType": "address",
          "name": "owner",
          "type": "address"
        },
        {
          "internalType": "address",
          "name": "operator",
          "type": "address"
        }
      ],
      "name": "isApprovedForAll",
      "outputs": [
        {
          "internalType": "bool",
          "name": "",
          "type": "bool"
        }
      ],
      "stateMutability": "view",
      "type": "function"
    },
    {
      "inputs": [],
      "name": "itemCount",
      "outputs": [
        {
          "internalType": "uint256",
          "name": "",
          "type": "uint256"
        }
      ],
      "stateMutability": "view",
      "type": "function"
    },
    {
      "inputs": [
        {
          "internalType": "uint256",
          "name": "",
          "type": "uint256"
        }
      ],
      "name": "items",
      "outputs": [
        {
          "internalType": "uint256",
          "name": "itemId",
          "type": "uint256"
        },
        {
          "internalType": "uint256",
          "name": "tokenId",
          "type": "uint256"
        },
        {
          "internalType": "uint256",
          "name": "serialId",
          "type": "uint256"
        },
        {
          "internalType": "address",
          "name": "currentOwner",
          "type": "address"
        },
        {
          "internalType": "uint256",
          "name": "issueTime",
          "type": "uint256"
        },
        {
          "internalType": "uint256",
          "name": "warrantyDays",
          "type": "uint256"
        },
        {
          "internalType": "string",
          "name": "warrantyConditionsURL",
          "type": "string"
        },
        {
          "internalType": "uint256",
          "name": "transfersRemaining",
          "type": "uint256"
        }
      ],
      "stateMutability": "view",
      "type": "function"
    },
    {
      "inputs": [
        {
          "internalType": "uint256",
          "name": "serialId",
          "type": "uint256"
        },
        {
          "internalType": "address",
          "name": "recipient",
          "type": "address"
        },
        {
          "internalType": "uint256",
          "name": "warrantyDays",
          "type": "uint256"
        },
        {
          "internalType": "string",
          "name": "warrantyConditionsURL",
          "type": "string"
        },
        {
          "internalType": "uint256",
          "name": "transfersRemaining",
          "type": "uint256"
        },
        {
          "internalType": "bool",
          "name": "usePoints",
          "type": "bool"
        }
      ],
      "name": "makeItem",
      "outputs": [],
      "stateMutability": "nonpayable",
      "type": "function"
    },
    {
      "inputs": [],
      "name": "name",
      "outputs": [
        {
          "internalType": "string",
          "name": "",
          "type": "string"
        }
      ],
      "stateMutability": "view",
      "type": "function"
    },
    {
      "inputs": [
        {
          "internalType": "uint256",
          "name": "tokenId",
          "type": "uint256"
        }
      ],
      "name": "ownerOf",
      "outputs": [
        {
          "internalType": "address",
          "name": "",
          "type": "address"
        }
      ],
      "stateMutability": "view",
      "type": "function"
    },
    {
      "inputs": [],
      "name": "pointsThreshold",
      "outputs": [
        {
          "internalType": "uint256",
          "name": "",
          "type": "uint256"
        }
      ],
      "stateMutability": "view",
      "type": "function"
    },
    {
      "inputs": [
        {
          "internalType": "uint256",
          "name": "",
          "type": "uint256"
        },
        {
          "internalType": "uint256",
          "name": "",
          "type": "uint256"
        }
      ],
      "name": "previousOwners",
      "outputs": [
        {
          "internalType": "address",
          "name": "ownerAddress",
          "type": "address"
        },
        {
          "internalType": "uint256",
          "name": "puchaseTime",
          "type": "uint256"
        },
        {
          "internalType": "uint256",
          "name": "sellTime",
          "type": "uint256"
        }
      ],
      "stateMutability": "view",
      "type": "function"
    },
    {
      "inputs": [],
      "name": "purchasePoints",
      "outputs": [
        {
          "internalType": "uint256",
          "name": "",
          "type": "uint256"
        }
      ],
      "stateMutability": "view",
      "type": "function"
    },
    {
      "inputs": [],
      "name": "redeemPoints",
      "outputs": [
        {
          "internalType": "uint256",
          "name": "",
          "type": "uint256"
        }
      ],
      "stateMutability": "view",
      "type": "function"
    },
    {
      "inputs": [
        {
          "internalType": "address",
          "name": "from",
          "type": "address"
        },
        {
          "internalType": "address",
          "name": "to",
          "type": "address"
        },
        {
          "internalType": "uint256",
          "name": "tokenId",
          "type": "uint256"
        }
      ],
      "name": "safeTransferFrom",
      "outputs": [],
      "stateMutability": "nonpayable",
      "type": "function"
    },
    {
      "inputs": [
        {
          "internalType": "address",
          "name": "from",
          "type": "address"
        },
        {
          "internalType": "address",
          "name": "to",
          "type": "address"
        },
        {
          "internalType": "uint256",
          "name": "tokenId",
          "type": "uint256"
        },
        {
          "internalType": "bytes",
          "name": "data",
          "type": "bytes"
        }
      ],
      "name": "safeTransferFrom",
      "outputs": [],
      "stateMutability": "nonpayable",
      "type": "function"
    },
    {
      "inputs": [
        {
          "internalType": "address",
          "name": "operator",
          "type": "address"
        },
        {
          "internalType": "bool",
          "name": "approved",
          "type": "bool"
        }
      ],
      "name": "setApprovalForAll",
      "outputs": [],
      "stateMutability": "nonpayable",
      "type": "function"
    },
    {
      "inputs": [
        {
          "internalType": "bytes4",
          "name": "interfaceId",
          "type": "bytes4"
        }
      ],
      "name": "supportsInterface",
      "outputs": [
        {
          "internalType": "bool",
          "name": "",
          "type": "bool"
        }
      ],
      "stateMutability": "view",
      "type": "function"
    },
    {
      "inputs": [],
      "name": "symbol",
      "outputs": [
        {
          "internalType": "string",
          "name": "",
          "type": "string"
        }
      ],
      "stateMutability": "view",
      "type": "function"
    },
    {
      "inputs": [
        {
          "internalType": "uint256",
          "name": "tokenId",
          "type": "uint256"
        }
      ],
      "name": "tokenURI",
      "outputs": [
        {
          "internalType": "string",
          "name": "",
          "type": "string"
        }
      ],
      "stateMutability": "view",
      "type": "function"
    },
    {
      "inputs": [
        {
          "internalType": "address",
          "name": "from",
          "type": "address"
        },
        {
          "internalType": "address",
          "name": "to",
          "type": "address"
        },
        {
          "internalType": "uint256",
          "name": "tokenId",
          "type": "uint256"
        }
      ],
      "name": "transferFrom",
      "outputs": [],
      "stateMutability": "nonpayable",
      "type": "function"
    },
    {
      "inputs": [
        {
          "internalType": "address",
          "name": "to",
          "type": "address"
        },
        {
          "internalType": "uint256",
          "name": "itemId",
          "type": "uint256"
        }
      ],
      "name": "transferItem",
      "outputs": [],
      "stateMutability": "nonpayable",
      "type": "function"
    },
    {
      "inputs": [
        {
          "internalType": "address",
          "name": "",
          "type": "address"
        }
      ],
      "name": "userPoints",
      "outputs": [
        {
          "internalType": "uint256",
          "name": "",
          "type": "uint256"
        }
      ],
      "stateMutability": "view",
      "type": "function"
    }
  ],
  "bytecode": "0x6101206040523480156200001257600080fd5b5060405162004c3938038062004c3983398181016040528101906200003891906200022f565b6040518060400160405280600b81526020017f57617272616e74794e46540000000000000000000000000000000000000000008152506040518060400160405280600381526020017f574e54000000000000000000000000000000000000000000000000000000000081525060016000819055508160019080519060200190620000c49291906200013f565b508060029080519060200190620000dd9291906200013f565b5050503373ffffffffffffffffffffffffffffffffffffffff1660808173ffffffffffffffffffffffffffffffffffffffff16815250508360a081815250508260c081815250508160e081815250508061010081815250505050505062000306565b8280546200014d90620002d0565b90600052602060002090601f016020900481019282620001715760008555620001bd565b82601f106200018c57805160ff1916838001178555620001bd565b82800160010185558215620001bd579182015b82811115620001bc5782518255916020019190600101906200019f565b5b509050620001cc9190620001d0565b5090565b5b80821115620001eb576000816000905550600101620001d1565b5090565b600080fd5b6000819050919050565b6200020981620001f4565b81146200021557600080fd5b50565b6000815190506200022981620001fe565b92915050565b600080600080608085870312156200024c576200024b620001ef565b5b60006200025c8782880162000218565b94505060206200026f8782880162000218565b9350506040620002828782880162000218565b9250506060620002958782880162000218565b91505092959194509250565b7f4e487b7100000000000000000000000000000000000000000000000000000000600052602260045260246000fd5b60006002820490506001821680620002e957607f821691505b602082108114156200030057620002ff620002a1565b5b50919050565b60805160a05160c05160e051610100516148cb6200036e60003960008181610aec01526120050152600081816114cd0152611b9e015260008181610c4a015261154a0152600081816114a3015261213c0152600081816109e9015261202901526148cb6000f3fe608060405234801561001057600080fd5b50600436106101e55760003560e01c8063a22cb4651161010f578063eba2463f116100a2578063f79142ba11610071578063f79142ba14610609578063f851a44014610627578063f894160e14610645578063fa4ffb6314610677576101e5565b8063eba2463f1461055b578063f1a0995c14610579578063f44e4a82146105a9578063f50ddbc7146105d9576101e5565b8063bfb231d2116100de578063bfb231d2146104a8578063c87b56dd146104df578063e4efb6a21461050f578063e985e9c51461052b576101e5565b8063a22cb4651461040e578063a48c6a8f1461042a578063b54fb04a1461045a578063b88d4fde1461048c576101e5565b80634c8b97381161018757806370a082311161015657806370a08231146103605780637b69a59b14610390578063888af91d146103c057806395d89b41146103f0576101e5565b80634c8b9738146102d85780636352211e146102f657806367c65e99146103265780636bfb0d0114610342576101e5565b8063095ea7b3116101c3578063095ea7b31461026857806323b872dd1461028457806342842e0e146102a057806345317e71146102bc576101e5565b806301ffc9a7146101ea57806306fdde031461021a578063081812fc14610238575b600080fd5b61020460048036038101906101ff9190612fbd565b610695565b6040516102119190613005565b60405180910390f35b610222610777565b60405161022f91906130b9565b60405180910390f35b610252600480360381019061024d9190613111565b610809565b60405161025f919061317f565b60405180910390f35b610282600480360381019061027d91906131c6565b61084f565b005b61029e60048036038101906102999190613206565b610967565b005b6102ba60048036038101906102b59190613206565b6109c7565b005b6102d660048036038101906102d191906133ba565b6109e7565b005b6102e0610c48565b6040516102ed9190613472565b60405180910390f35b610310600480360381019061030b9190613111565b610c6c565b60405161031d919061317f565b60405180910390f35b610340600480360381019061033b91906131c6565b610d1e565b005b61034a6110e6565b6040516103579190613472565b60405180910390f35b61037a6004803603810190610375919061348d565b6110ec565b6040516103879190613472565b60405180910390f35b6103aa60048036038101906103a59190613111565b6111a4565b6040516103b79190613472565b60405180910390f35b6103da60048036038101906103d59190613111565b611243565b6040516103e79190613634565b60405180910390f35b6103f86113a7565b60405161040591906130b9565b60405180910390f35b61042860048036038101906104239190613656565b611439565b005b610444600480360381019061043f9190613656565b61144f565b6040516104519190613005565b60405180910390f35b610474600480360381019061046f9190613696565b6115c7565b604051610483939291906136d6565b60405180910390f35b6104a660048036038101906104a191906137ae565b61162e565b005b6104c260048036038101906104bd9190613111565b611690565b6040516104d6989796959493929190613831565b60405180910390f35b6104f960048036038101906104f49190613111565b611780565b60405161050691906130b9565b60405180910390f35b610529600480360381019061052491906138b6565b611893565b005b61054560048036038101906105409190613912565b611b08565b6040516105529190613005565b60405180910390f35b610563611b9c565b6040516105709190613472565b60405180910390f35b610593600480360381019061058e9190613111565b611bc0565b6040516105a09190613a43565b60405180910390f35b6105c360048036038101906105be919061348d565b611c9c565b6040516105d09190613bd7565b60405180910390f35b6105f360048036038101906105ee919061348d565b611feb565b6040516106009190613472565b60405180910390f35b610611612003565b60405161061e9190613472565b60405180910390f35b61062f612027565b60405161063c919061317f565b60405180910390f35b61065f600480360381019061065a9190613696565b61204b565b60405161066e93929190613bf9565b60405180910390f35b61067f61213a565b60405161068c9190613472565b60405180910390f35b60007f80ac58cd000000000000000000000000000000000000000000000000000000007bffffffffffffffffffffffffffffffffffffffffffffffffffffffff1916827bffffffffffffffffffffffffffffffffffffffffffffffffffffffff1916148061076057507f5b5e139f000000000000000000000000000000000000000000000000000000007bffffffffffffffffffffffffffffffffffffffffffffffffffffffff1916827bffffffffffffffffffffffffffffffffffffffffffffffffffffffff1916145b80610770575061076f8261215e565b5b9050919050565b60606001805461078690613c66565b80601f01602080910402602001604051908101604052809291908181526020018280546107b290613c66565b80156107ff5780601f106107d4576101008083540402835291602001916107ff565b820191906000526020600020905b8154815290600101906020018083116107e257829003601f168201915b5050505050905090565b6000610814826121c8565b6005600083815260200190815260200160002060009054906101000a900473ffffffffffffffffffffffffffffffffffffffff169050919050565b600061085a82610c6c565b90508073ffffffffffffffffffffffffffffffffffffffff168373ffffffffffffffffffffffffffffffffffffffff1614156108cb576040517f08c379a00000000000000000000000000000000000000000000000000000000081526004016108c290613d0a565b60405180910390fd5b8073ffffffffffffffffffffffffffffffffffffffff166108ea612213565b73ffffffffffffffffffffffffffffffffffffffff161480610919575061091881610913612213565b611b08565b5b610958576040517f08c379a000000000000000000000000000000000000000000000000000000000815260040161094f90613d9c565b60405180910390fd5b610962838361221b565b505050565b610978610972612213565b826122d4565b6109b7576040517f08c379a00000000000000000000000000000000000000000000000000000000081526004016109ae90613e2e565b60405180910390fd5b6109c2838383612369565b505050565b6109e28383836040518060200160405280600081525061162e565b505050565b7f000000000000000000000000000000000000000000000000000000000000000073ffffffffffffffffffffffffffffffffffffffff163373ffffffffffffffffffffffffffffffffffffffff1614610a75576040517f08c379a0000000000000000000000000000000000000000000000000000000008152600401610a6c90613ec0565b60405180910390fd5b60026000541415610abb576040517f08c379a0000000000000000000000000000000000000000000000000000000008152600401610ab290613f2c565b60405180910390fd5b600260008190555060096000815480929190610ad690613f7b565b9190505550610ae5858261144f565b15610b19577f000000000000000000000000000000000000000000000000000000000000000084610b169190613fc4565b93505b6000610b2586856125d0565b9050600060405180610100016040528060095481526020018381526020018981526020018873ffffffffffffffffffffffffffffffffffffffff16815260200142815260200187815260200186815260200185815250905080600a6000600954815260200190815260200160002060008201518160000155602082015181600101556040820151816002015560608201518160030160006101000a81548173ffffffffffffffffffffffffffffffffffffffff021916908373ffffffffffffffffffffffffffffffffffffffff1602179055506080820151816004015560a0820151816005015560c0820151816006019080519060200190610c28929190612e53565b5060e0820151816007015590505050506001600081905550505050505050565b7f000000000000000000000000000000000000000000000000000000000000000081565b6000806003600084815260200190815260200160002060009054906101000a900473ffffffffffffffffffffffffffffffffffffffff169050600073ffffffffffffffffffffffffffffffffffffffff168173ffffffffffffffffffffffffffffffffffffffff161415610d15576040517f08c379a0000000000000000000000000000000000000000000000000000000008152600401610d0c90614066565b60405180910390fd5b80915050919050565b80600a600082815260200190815260200160002060030160009054906101000a900473ffffffffffffffffffffffffffffffffffffffff1673ffffffffffffffffffffffffffffffffffffffff163373ffffffffffffffffffffffffffffffffffffffff1614610dc3576040517f08c379a0000000000000000000000000000000000000000000000000000000008152600401610dba906140f8565b60405180910390fd5b816000600a6000838152602001908152602001600020905060006018603c80846004015442610df29190614118565b610dfc919061417b565b610e06919061417b565b610e10919061417b565b905081600501548110610e58576040517f08c379a0000000000000000000000000000000000000000000000000000000008152600401610e4f906141f8565b60405180910390fd5b60026000541415610e9e576040517f08c379a0000000000000000000000000000000000000000000000000000000008152600401610e9590613f2c565b60405180910390fd5b60026000819055506000600a60008781526020019081526020016000206007015411610eff576040517f08c379a0000000000000000000000000000000000000000000000000000000008152600401610ef69061428a565b60405180910390fd5b6000600a60008781526020019081526020016000209050600080600c6000898152602001908152602001600020805490501415610f425781600401549050610f9e565b600c60008881526020019081526020016000206001600c60008a815260200190815260200160002080549050610f789190614118565b81548110610f8957610f886142aa565b5b90600052602060002090600302016002015490505b610fad338984600101546109c7565b600c600088815260200190815260200160002060405180606001604052803373ffffffffffffffffffffffffffffffffffffffff16815260200183815260200142815250908060018154018082558091505060019003906000526020600020906003020160009091909190915060008201518160000160006101000a81548173ffffffffffffffffffffffffffffffffffffffff021916908373ffffffffffffffffffffffffffffffffffffffff16021790555060208201518160010155604082015181600201555050878260030160006101000a81548173ffffffffffffffffffffffffffffffffffffffff021916908373ffffffffffffffffffffffffffffffffffffffff1602179055508160070160008154809291906110cf906142d9565b919050555050506001600081905550505050505050565b60095481565b60008073ffffffffffffffffffffffffffffffffffffffff168273ffffffffffffffffffffffffffffffffffffffff16141561115d576040517f08c379a000000000000000000000000000000000000000000000000000000000815260040161115490614375565b60405180910390fd5b600460008373ffffffffffffffffffffffffffffffffffffffff1673ffffffffffffffffffffffffffffffffffffffff168152602001908152602001600020549050919050565b600080600c60008481526020019081526020016000208054905014156111e257600a600083815260200190815260200160002060040154905061123e565b600c60008381526020019081526020016000206001600c6000858152602001908152602001600020805490506112189190614118565b81548110611229576112286142aa565b5b90600052602060002090600302016002015490505b919050565b6060600d6000838152602001908152602001600020805480602002602001604051908101604052809291908181526020016000905b8282101561139c57838290600052602060002090600302016040518060600160405290816000820160009054906101000a900473ffffffffffffffffffffffffffffffffffffffff1673ffffffffffffffffffffffffffffffffffffffff1673ffffffffffffffffffffffffffffffffffffffff1681526020016001820154815260200160028201805461130b90613c66565b80601f016020809104026020016040519081016040528092919081815260200182805461133790613c66565b80156113845780601f1061135957610100808354040283529160200191611384565b820191906000526020600020905b81548152906001019060200180831161136757829003601f168201915b50505050508152505081526020019060010190611278565b505050509050919050565b6060600280546113b690613c66565b80601f01602080910402602001604051908101604052809291908181526020018280546113e290613c66565b801561142f5780601f106114045761010080835404028352916020019161142f565b820191906000526020600020905b81548152906001019060200180831161141257829003601f168201915b5050505050905090565b61144b611444612213565b8383612608565b5050565b600080600b60008573ffffffffffffffffffffffffffffffffffffffff1673ffffffffffffffffffffffffffffffffffffffff16815260200190815260200160002054905060008190508380156114c657507f00000000000000000000000000000000000000000000000000000000000000008210155b15611548577f0000000000000000000000000000000000000000000000000000000000000000826114f79190614118565b905080600b60008773ffffffffffffffffffffffffffffffffffffffff1673ffffffffffffffffffffffffffffffffffffffff168152602001908152602001600020819055506001925050506115c1565b7f0000000000000000000000000000000000000000000000000000000000000000816115749190613fc4565b905080600b60008773ffffffffffffffffffffffffffffffffffffffff1673ffffffffffffffffffffffffffffffffffffffff168152602001908152602001600020819055506000925050505b92915050565b600c60205281600052604060002081815481106115e357600080fd5b9060005260206000209060030201600091509150508060000160009054906101000a900473ffffffffffffffffffffffffffffffffffffffff16908060010154908060020154905083565b61163f611639612213565b836122d4565b61167e576040517f08c379a000000000000000000000000000000000000000000000000000000000815260040161167590613e2e565b60405180910390fd5b61168a84848484612775565b50505050565b600a6020528060005260406000206000915090508060000154908060010154908060020154908060030160009054906101000a900473ffffffffffffffffffffffffffffffffffffffff16908060040154908060050154908060060180546116f790613c66565b80601f016020809104026020016040519081016040528092919081815260200182805461172390613c66565b80156117705780601f1061174557610100808354040283529160200191611770565b820191906000526020600020905b81548152906001019060200180831161175357829003601f168201915b5050505050908060070154905088565b606061178b826121c8565b60006007600084815260200190815260200160002080546117ab90613c66565b80601f01602080910402602001604051908101604052809291908181526020018280546117d790613c66565b80156118245780601f106117f957610100808354040283529160200191611824565b820191906000526020600020905b81548152906001019060200180831161180757829003601f168201915b5050505050905060006118356127d1565b905060008151141561184b57819250505061188e565b6000825111156118805780826040516020016118689291906143d1565b6040516020818303038152906040529250505061188e565b611889846127e8565b925050505b919050565b80600a600082815260200190815260200160002060030160009054906101000a900473ffffffffffffffffffffffffffffffffffffffff1673ffffffffffffffffffffffffffffffffffffffff163373ffffffffffffffffffffffffffffffffffffffff1614611938576040517f08c379a000000000000000000000000000000000000000000000000000000000815260040161192f906140f8565b60405180910390fd5b816000600a6000838152602001908152602001600020905060006018603c808460040154426119679190614118565b611971919061417b565b61197b919061417b565b611985919061417b565b9050816005015481106119cd576040517f08c379a00000000000000000000000000000000000000000000000000000000081526004016119c4906141f8565b60405180910390fd5b60026000541415611a13576040517f08c379a0000000000000000000000000000000000000000000000000000000008152600401611a0a90613f2c565b60405180910390fd5b6002600081905550600d600086815260200190815260200160002060405180606001604052803373ffffffffffffffffffffffffffffffffffffffff16815260200142815260200188815250908060018154018082558091505060019003906000526020600020906003020160009091909190915060008201518160000160006101000a81548173ffffffffffffffffffffffffffffffffffffffff021916908373ffffffffffffffffffffffffffffffffffffffff160217905550602082015181600101556040820151816002019080519060200190611af5929190612e53565b5050506001600081905550505050505050565b6000600660008473ffffffffffffffffffffffffffffffffffffffff1673ffffffffffffffffffffffffffffffffffffffff16815260200190815260200160002060008373ffffffffffffffffffffffffffffffffffffffff1673ffffffffffffffffffffffffffffffffffffffff16815260200190815260200160002060009054906101000a900460ff16905092915050565b7f000000000000000000000000000000000000000000000000000000000000000081565b6060600c6000838152602001908152602001600020805480602002602001604051908101604052809291908181526020016000905b82821015611c9157838290600052602060002090600302016040518060600160405290816000820160009054906101000a900473ffffffffffffffffffffffffffffffffffffffff1673ffffffffffffffffffffffffffffffffffffffff1673ffffffffffffffffffffffffffffffffffffffff1681526020016001820154815260200160028201548152505081526020019060010190611bf5565b505050509050919050565b6060600060095467ffffffffffffffff811115611cbc57611cbb613263565b5b604051908082528060200260200182016040528015611cf557816020015b611ce2612ed9565b815260200190600190039081611cda5790505b509050600080600190505b6009548111611f2f576000600a600083815260200190815260200160002090508573ffffffffffffffffffffffffffffffffffffffff168160030160009054906101000a900473ffffffffffffffffffffffffffffffffffffffff1673ffffffffffffffffffffffffffffffffffffffff161415611f1b5760006018603c80846004015442611d8f9190614118565b611d99919061417b565b611da3919061417b565b611dad919061417b565b90508160050154811015611f195781604051806101000160405290816000820154815260200160018201548152602001600282015481526020016003820160009054906101000a900473ffffffffffffffffffffffffffffffffffffffff1673ffffffffffffffffffffffffffffffffffffffff1673ffffffffffffffffffffffffffffffffffffffff1681526020016004820154815260200160058201548152602001600682018054611e6090613c66565b80601f0160208091040260200160405190810160405280929190818152602001828054611e8c90613c66565b8015611ed95780601f10611eae57610100808354040283529160200191611ed9565b820191906000526020600020905b815481529060010190602001808311611ebc57829003601f168201915b50505050508152602001600782015481525050858581518110611eff57611efe6142aa565b5b60200260200101819052508380611f1590613f7b565b9450505b505b508080611f2790613f7b565b915050611d00565b5060008167ffffffffffffffff811115611f4c57611f4b613263565b5b604051908082528060200260200182016040528015611f8557816020015b611f72612ed9565b815260200190600190039081611f6a5790505b50905060005b82811015611fdf57838181518110611fa657611fa56142aa565b5b6020026020010151828281518110611fc157611fc06142aa565b5b60200260200101819052508080611fd790613f7b565b915050611f8b565b50809350505050919050565b600b6020528060005260406000206000915090505481565b7f000000000000000000000000000000000000000000000000000000000000000081565b7f000000000000000000000000000000000000000000000000000000000000000081565b600d602052816000526040600020818154811061206757600080fd5b9060005260206000209060030201600091509150508060000160009054906101000a900473ffffffffffffffffffffffffffffffffffffffff16908060010154908060020180546120b790613c66565b80601f01602080910402602001604051908101604052809291908181526020018280546120e390613c66565b80156121305780601f1061210557610100808354040283529160200191612130565b820191906000526020600020905b81548152906001019060200180831161211357829003601f168201915b5050505050905083565b7f000000000000000000000000000000000000000000000000000000000000000081565b60007f01ffc9a7000000000000000000000000000000000000000000000000000000007bffffffffffffffffffffffffffffffffffffffffffffffffffffffff1916827bffffffffffffffffffffffffffffffffffffffffffffffffffffffff1916149050919050565b6121d181612850565b612210576040517f08c379a000000000000000000000000000000000000000000000000000000000815260040161220790614066565b60405180910390fd5b50565b600033905090565b816005600083815260200190815260200160002060006101000a81548173ffffffffffffffffffffffffffffffffffffffff021916908373ffffffffffffffffffffffffffffffffffffffff160217905550808273ffffffffffffffffffffffffffffffffffffffff1661228e83610c6c565b73ffffffffffffffffffffffffffffffffffffffff167f8c5be1e5ebec7d5bd14f71427d1e84f3dd0314c0f7b2291e5b200ac8c7c3b92560405160405180910390a45050565b6000806122e083610c6c565b90508073ffffffffffffffffffffffffffffffffffffffff168473ffffffffffffffffffffffffffffffffffffffff16148061232257506123218185611b08565b5b8061236057508373ffffffffffffffffffffffffffffffffffffffff1661234884610809565b73ffffffffffffffffffffffffffffffffffffffff16145b91505092915050565b8273ffffffffffffffffffffffffffffffffffffffff1661238982610c6c565b73ffffffffffffffffffffffffffffffffffffffff16146123df576040517f08c379a00000000000000000000000000000000000000000000000000000000081526004016123d690614467565b60405180910390fd5b600073ffffffffffffffffffffffffffffffffffffffff168273ffffffffffffffffffffffffffffffffffffffff16141561244f576040517f08c379a0000000000000000000000000000000000000000000000000000000008152600401612446906144f9565b60405180910390fd5b61245a8383836128bc565b61246560008261221b565b6001600460008573ffffffffffffffffffffffffffffffffffffffff1673ffffffffffffffffffffffffffffffffffffffff16815260200190815260200160002060008282546124b59190614118565b925050819055506001600460008473ffffffffffffffffffffffffffffffffffffffff1673ffffffffffffffffffffffffffffffffffffffff168152602001908152602001600020600082825461250c9190613fc4565b92505081905550816003600083815260200190815260200160002060006101000a81548173ffffffffffffffffffffffffffffffffffffffff021916908373ffffffffffffffffffffffffffffffffffffffff160217905550808273ffffffffffffffffffffffffffffffffffffffff168473ffffffffffffffffffffffffffffffffffffffff167fddf252ad1be2c89b69c2b068fc378daa952ba7f163c4a11628f55a4df523b3ef60405160405180910390a46125cb8383836128c1565b505050565b60006125dc60086128c6565b60006125e860086128dc565b90506125f484826128ea565b6125fe8184612ac4565b8091505092915050565b8173ffffffffffffffffffffffffffffffffffffffff168373ffffffffffffffffffffffffffffffffffffffff161415612677576040517f08c379a000000000000000000000000000000000000000000000000000000000815260040161266e90614565565b60405180910390fd5b80600660008573ffffffffffffffffffffffffffffffffffffffff1673ffffffffffffffffffffffffffffffffffffffff16815260200190815260200160002060008473ffffffffffffffffffffffffffffffffffffffff1673ffffffffffffffffffffffffffffffffffffffff16815260200190815260200160002060006101000a81548160ff0219169083151502179055508173ffffffffffffffffffffffffffffffffffffffff168373ffffffffffffffffffffffffffffffffffffffff167f17307eab39ab6107e8899845ad3d59bd9653f200f220920489ca2b5937696c31836040516127689190613005565b60405180910390a3505050565b612780848484612369565b61278c84848484612b38565b6127cb576040517f08c379a00000000000000000000000000000000000000000000000000000000081526004016127c2906145f7565b60405180910390fd5b50505050565b606060405180602001604052806000815250905090565b60606127f3826121c8565b60006127fd6127d1565b9050600081511161281d5760405180602001604052806000815250612848565b8061282784612ccf565b6040516020016128389291906143d1565b6040516020818303038152906040525b915050919050565b60008073ffffffffffffffffffffffffffffffffffffffff166003600084815260200190815260200160002060009054906101000a900473ffffffffffffffffffffffffffffffffffffffff1673ffffffffffffffffffffffffffffffffffffffff1614159050919050565b505050565b505050565b6001816000016000828254019250508190555050565b600081600001549050919050565b600073ffffffffffffffffffffffffffffffffffffffff168273ffffffffffffffffffffffffffffffffffffffff16141561295a576040517f08c379a000000000000000000000000000000000000000000000000000000000815260040161295190614663565b60405180910390fd5b61296381612850565b156129a3576040517f08c379a000000000000000000000000000000000000000000000000000000000815260040161299a906146cf565b60405180910390fd5b6129af600083836128bc565b6001600460008473ffffffffffffffffffffffffffffffffffffffff1673ffffffffffffffffffffffffffffffffffffffff16815260200190815260200160002060008282546129ff9190613fc4565b92505081905550816003600083815260200190815260200160002060006101000a81548173ffffffffffffffffffffffffffffffffffffffff021916908373ffffffffffffffffffffffffffffffffffffffff160217905550808273ffffffffffffffffffffffffffffffffffffffff16600073ffffffffffffffffffffffffffffffffffffffff167fddf252ad1be2c89b69c2b068fc378daa952ba7f163c4a11628f55a4df523b3ef60405160405180910390a4612ac0600083836128c1565b5050565b612acd82612850565b612b0c576040517f08c379a0000000000000000000000000000000000000000000000000000000008152600401612b0390614761565b60405180910390fd5b80600760008481526020019081526020016000209080519060200190612b33929190612e53565b505050565b6000612b598473ffffffffffffffffffffffffffffffffffffffff16612e30565b15612cc2578373ffffffffffffffffffffffffffffffffffffffff1663150b7a02612b82612213565b8786866040518563ffffffff1660e01b8152600401612ba494939291906147d6565b602060405180830381600087803b158015612bbe57600080fd5b505af1925050508015612bef57506040513d601f19601f82011682018060405250810190612bec9190614837565b60015b612c72573d8060008114612c1f576040519150601f19603f3d011682016040523d82523d6000602084013e612c24565b606091505b50600081511415612c6a576040517f08c379a0000000000000000000000000000000000000000000000000000000008152600401612c61906145f7565b60405180910390fd5b805181602001fd5b63150b7a0260e01b7bffffffffffffffffffffffffffffffffffffffffffffffffffffffff1916817bffffffffffffffffffffffffffffffffffffffffffffffffffffffff191614915050612cc7565b600190505b949350505050565b60606000821415612d17576040518060400160405280600181526020017f30000000000000000000000000000000000000000000000000000000000000008152509050612e2b565b600082905060005b60008214612d49578080612d3290613f7b565b915050600a82612d42919061417b565b9150612d1f565b60008167ffffffffffffffff811115612d6557612d64613263565b5b6040519080825280601f01601f191660200182016040528015612d975781602001600182028036833780820191505090505b5090505b60008514612e2457600182612db09190614118565b9150600a85612dbf9190614864565b6030612dcb9190613fc4565b60f81b818381518110612de157612de06142aa565b5b60200101907effffffffffffffffffffffffffffffffffffffffffffffffffffffffffffff1916908160001a905350600a85612e1d919061417b565b9450612d9b565b8093505050505b919050565b6000808273ffffffffffffffffffffffffffffffffffffffff163b119050919050565b828054612e5f90613c66565b90600052602060002090601f016020900481019282612e815760008555612ec8565b82601f10612e9a57805160ff1916838001178555612ec8565b82800160010185558215612ec8579182015b82811115612ec7578251825591602001919060010190612eac565b5b509050612ed59190612f34565b5090565b604051806101000160405280600081526020016000815260200160008152602001600073ffffffffffffffffffffffffffffffffffffffff168152602001600081526020016000815260200160608152602001600081525090565b5b80821115612f4d576000816000905550600101612f35565b5090565b6000604051905090565b600080fd5b600080fd5b60007fffffffff0000000000000000000000000000000000000000000000000000000082169050919050565b612f9a81612f65565b8114612fa557600080fd5b50565b600081359050612fb781612f91565b92915050565b600060208284031215612fd357612fd2612f5b565b5b6000612fe184828501612fa8565b91505092915050565b60008115159050919050565b612fff81612fea565b82525050565b600060208201905061301a6000830184612ff6565b92915050565b600081519050919050565b600082825260208201905092915050565b60005b8381101561305a57808201518184015260208101905061303f565b83811115613069576000848401525b50505050565b6000601f19601f8301169050919050565b600061308b82613020565b613095818561302b565b93506130a581856020860161303c565b6130ae8161306f565b840191505092915050565b600060208201905081810360008301526130d38184613080565b905092915050565b6000819050919050565b6130ee816130db565b81146130f957600080fd5b50565b60008135905061310b816130e5565b92915050565b60006020828403121561312757613126612f5b565b5b6000613135848285016130fc565b91505092915050565b600073ffffffffffffffffffffffffffffffffffffffff82169050919050565b60006131698261313e565b9050919050565b6131798161315e565b82525050565b60006020820190506131946000830184613170565b92915050565b6131a38161315e565b81146131ae57600080fd5b50565b6000813590506131c08161319a565b92915050565b600080604083850312156131dd576131dc612f5b565b5b60006131eb858286016131b1565b92505060206131fc858286016130fc565b9150509250929050565b60008060006060848603121561321f5761321e612f5b565b5b600061322d868287016131b1565b935050602061323e868287016131b1565b925050604061324f868287016130fc565b9150509250925092565b600080fd5b600080fd5b7f4e487b7100000000000000000000000000000000000000000000000000000000600052604160045260246000fd5b61329b8261306f565b810181811067ffffffffffffffff821117156132ba576132b9613263565b5b80604052505050565b60006132cd612f51565b90506132d98282613292565b919050565b600067ffffffffffffffff8211156132f9576132f8613263565b5b6133028261306f565b9050602081019050919050565b82818337600083830152505050565b600061333161332c846132de565b6132c3565b90508281526020810184848401111561334d5761334c61325e565b5b61335884828561330f565b509392505050565b600082601f83011261337557613374613259565b5b813561338584826020860161331e565b91505092915050565b61339781612fea565b81146133a257600080fd5b50565b6000813590506133b48161338e565b92915050565b60008060008060008060c087890312156133d7576133d6612f5b565b5b60006133e589828a016130fc565b96505060206133f689828a016131b1565b955050604061340789828a016130fc565b945050606087013567ffffffffffffffff81111561342857613427612f60565b5b61343489828a01613360565b935050608061344589828a016130fc565b92505060a061345689828a016133a5565b9150509295509295509295565b61346c816130db565b82525050565b60006020820190506134876000830184613463565b92915050565b6000602082840312156134a3576134a2612f5b565b5b60006134b1848285016131b1565b91505092915050565b600081519050919050565b600082825260208201905092915050565b6000819050602082019050919050565b6134ef8161315e565b82525050565b6134fe816130db565b82525050565b600082825260208201905092915050565b600061352082613020565b61352a8185613504565b935061353a81856020860161303c565b6135438161306f565b840191505092915050565b600060608301600083015161356660008601826134e6565b50602083015161357960208601826134f5565b50604083015184820360408601526135918282613515565b9150508091505092915050565b60006135aa838361354e565b905092915050565b6000602082019050919050565b60006135ca826134ba565b6135d481856134c5565b9350836020820285016135e6856134d6565b8060005b858110156136225784840389528151613603858261359e565b945061360e836135b2565b925060208a019950506001810190506135ea565b50829750879550505050505092915050565b6000602082019050818103600083015261364e81846135bf565b905092915050565b6000806040838503121561366d5761366c612f5b565b5b600061367b858286016131b1565b925050602061368c858286016133a5565b9150509250929050565b600080604083850312156136ad576136ac612f5b565b5b60006136bb858286016130fc565b92505060206136cc858286016130fc565b9150509250929050565b60006060820190506136eb6000830186613170565b6136f86020830185613463565b6137056040830184613463565b949350505050565b600067ffffffffffffffff82111561372857613727613263565b5b6137318261306f565b9050602081019050919050565b600061375161374c8461370d565b6132c3565b90508281526020810184848401111561376d5761376c61325e565b5b61377884828561330f565b509392505050565b600082601f83011261379557613794613259565b5b81356137a584826020860161373e565b91505092915050565b600080600080608085870312156137c8576137c7612f5b565b5b60006137d6878288016131b1565b94505060206137e7878288016131b1565b93505060406137f8878288016130fc565b925050606085013567ffffffffffffffff81111561381957613818612f60565b5b61382587828801613780565b91505092959194509250565b600061010082019050613847600083018b613463565b613854602083018a613463565b6138616040830189613463565b61386e6060830188613170565b61387b6080830187613463565b61388860a0830186613463565b81810360c083015261389a8185613080565b90506138a960e0830184613463565b9998505050505050505050565b600080604083850312156138cd576138cc612f5b565b5b600083013567ffffffffffffffff8111156138eb576138ea612f60565b5b6138f785828601613360565b9250506020613908858286016130fc565b9150509250929050565b6000806040838503121561392957613928612f5b565b5b6000613937858286016131b1565b9250506020613948858286016131b1565b9150509250929050565b600081519050919050565b600082825260208201905092915050565b6000819050602082019050919050565b60608201600082015161399460008501826134e6565b5060208201516139a760208501826134f5565b5060408201516139ba60408501826134f5565b50505050565b60006139cc838361397e565b60608301905092915050565b6000602082019050919050565b60006139f082613952565b6139fa818561395d565b9350613a058361396e565b8060005b83811015613a36578151613a1d88826139c0565b9750613a28836139d8565b925050600181019050613a09565b5085935050505092915050565b60006020820190508181036000830152613a5d81846139e5565b905092915050565b600081519050919050565b600082825260208201905092915050565b6000819050602082019050919050565b600061010083016000830151613aaa60008601826134f5565b506020830151613abd60208601826134f5565b506040830151613ad060408601826134f5565b506060830151613ae360608601826134e6565b506080830151613af660808601826134f5565b5060a0830151613b0960a08601826134f5565b5060c083015184820360c0860152613b218282613515565b91505060e0830151613b3660e08601826134f5565b508091505092915050565b6000613b4d8383613a91565b905092915050565b6000602082019050919050565b6000613b6d82613a65565b613b778185613a70565b935083602082028501613b8985613a81565b8060005b85811015613bc55784840389528151613ba68582613b41565b9450613bb183613b55565b925060208a01995050600181019050613b8d565b50829750879550505050505092915050565b60006020820190508181036000830152613bf18184613b62565b905092915050565b6000606082019050613c0e6000830186613170565b613c1b6020830185613463565b8181036040830152613c2d8184613080565b9050949350505050565b7f4e487b7100000000000000000000000000000000000000000000000000000000600052602260045260246000fd5b60006002820490506001821680613c7e57607f821691505b60208210811415613c9257613c91613c37565b5b50919050565b7f4552433732313a20617070726f76616c20746f2063757272656e74206f776e6560008201527f7200000000000000000000000000000000000000000000000000000000000000602082015250565b6000613cf460218361302b565b9150613cff82613c98565b604082019050919050565b60006020820190508181036000830152613d2381613ce7565b9050919050565b7f4552433732313a20617070726f76652063616c6c6572206973206e6f7420746f60008201527f6b656e206f776e6572206e6f7220617070726f76656420666f7220616c6c0000602082015250565b6000613d86603e8361302b565b9150613d9182613d2a565b604082019050919050565b60006020820190508181036000830152613db581613d79565b9050919050565b7f4552433732313a2063616c6c6572206973206e6f7420746f6b656e206f776e6560008201527f72206e6f7220617070726f766564000000000000000000000000000000000000602082015250565b6000613e18602e8361302b565b9150613e2382613dbc565b604082019050919050565b60006020820190508181036000830152613e4781613e0b565b9050919050565b7f50726f6869626974656421204f6e6c7920636f6e74726163742061646d696e2060008201527f63616e2063616c6c2074686973207472616e73616374696f6e2e000000000000602082015250565b6000613eaa603a8361302b565b9150613eb582613e4e565b604082019050919050565b60006020820190508181036000830152613ed981613e9d565b9050919050565b7f5265656e7472616e637947756172643a207265656e7472616e742063616c6c00600082015250565b6000613f16601f8361302b565b9150613f2182613ee0565b602082019050919050565b60006020820190508181036000830152613f4581613f09565b9050919050565b7f4e487b7100000000000000000000000000000000000000000000000000000000600052601160045260246000fd5b6000613f86826130db565b91507fffffffffffffffffffffffffffffffffffffffffffffffffffffffffffffffff821415613fb957613fb8613f4c565b5b600182019050919050565b6000613fcf826130db565b9150613fda836130db565b9250827fffffffffffffffffffffffffffffffffffffffffffffffffffffffffffffffff0382111561400f5761400e613f4c565b5b828201905092915050565b7f4552433732313a20696e76616c696420746f6b656e2049440000000000000000600082015250565b600061405060188361302b565b915061405b8261401a565b602082019050919050565b6000602082019050818103600083015261407f81614043565b9050919050565b7f50726f6869626974656421204f6e6c79206974656d206f776e65722063616e2060008201527f63616c6c2074686973207472616e73616374696f6e2e00000000000000000000602082015250565b60006140e260368361302b565b91506140ed82614086565b604082019050919050565b60006020820190508181036000830152614111816140d5565b9050919050565b6000614123826130db565b915061412e836130db565b92508282101561414157614140613f4c565b5b828203905092915050565b7f4e487b7100000000000000000000000000000000000000000000000000000000600052601260045260246000fd5b6000614186826130db565b9150614191836130db565b9250826141a1576141a061414c565b5b828204905092915050565b7f4974656d20686173206578706972656421000000000000000000000000000000600082015250565b60006141e260118361302b565b91506141ed826141ac565b602082019050919050565b60006020820190508181036000830152614211816141d5565b9050919050565b7f5472616e73666572206661696c65642120596f7520686176652075736564206160008201527f6c6c20796f7572207472616e73666572732e0000000000000000000000000000602082015250565b600061427460328361302b565b915061427f82614218565b604082019050919050565b600060208201905081810360008301526142a381614267565b9050919050565b7f4e487b7100000000000000000000000000000000000000000000000000000000600052603260045260246000fd5b60006142e4826130db565b915060008214156142f8576142f7613f4c565b5b600182039050919050565b7f4552433732313a2061646472657373207a65726f206973206e6f74206120766160008201527f6c6964206f776e65720000000000000000000000000000000000000000000000602082015250565b600061435f60298361302b565b915061436a82614303565b604082019050919050565b6000602082019050818103600083015261438e81614352565b9050919050565b600081905092915050565b60006143ab82613020565b6143b58185614395565b93506143c581856020860161303c565b80840191505092915050565b60006143dd82856143a0565b91506143e982846143a0565b91508190509392505050565b7f4552433732313a207472616e736665722066726f6d20696e636f72726563742060008201527f6f776e6572000000000000000000000000000000000000000000000000000000602082015250565b600061445160258361302b565b915061445c826143f5565b604082019050919050565b6000602082019050818103600083015261448081614444565b9050919050565b7f4552433732313a207472616e7366657220746f20746865207a65726f2061646460008201527f7265737300000000000000000000000000000000000000000000000000000000602082015250565b60006144e360248361302b565b91506144ee82614487565b604082019050919050565b60006020820190508181036000830152614512816144d6565b9050919050565b7f4552433732313a20617070726f766520746f2063616c6c657200000000000000600082015250565b600061454f60198361302b565b915061455a82614519565b602082019050919050565b6000602082019050818103600083015261457e81614542565b9050919050565b7f4552433732313a207472616e7366657220746f206e6f6e20455243373231526560008201527f63656976657220696d706c656d656e7465720000000000000000000000000000602082015250565b60006145e160328361302b565b91506145ec82614585565b604082019050919050565b60006020820190508181036000830152614610816145d4565b9050919050565b7f4552433732313a206d696e7420746f20746865207a65726f2061646472657373600082015250565b600061464d60208361302b565b915061465882614617565b602082019050919050565b6000602082019050818103600083015261467c81614640565b9050919050565b7f4552433732313a20746f6b656e20616c7265616479206d696e74656400000000600082015250565b60006146b9601c8361302b565b91506146c482614683565b602082019050919050565b600060208201905081810360008301526146e8816146ac565b9050919050565b7f45524337323155524953746f726167653a2055524920736574206f66206e6f6e60008201527f6578697374656e7420746f6b656e000000000000000000000000000000000000602082015250565b600061474b602e8361302b565b9150614756826146ef565b604082019050919050565b6000602082019050818103600083015261477a8161473e565b9050919050565b600081519050919050565b600082825260208201905092915050565b60006147a882614781565b6147b2818561478c565b93506147c281856020860161303c565b6147cb8161306f565b840191505092915050565b60006080820190506147eb6000830187613170565b6147f86020830186613170565b6148056040830185613463565b8181036060830152614817818461479d565b905095945050505050565b60008151905061483181612f91565b92915050565b60006020828403121561484d5761484c612f5b565b5b600061485b84828501614822565b91505092915050565b600061486f826130db565b915061487a836130db565b92508261488a5761488961414c565b5b82820690509291505056fea2646970667358221220495669d192469315344c7013a01e697cad5e2069caad43579208fdaeecdaea3464736f6c63430008090033",
  "linkReferences": {},
  "deployedLinkReferences": {}
}